:1000000072C000009EC000009CC000009AC00000AA
:1000100098C0000096C0000094C0000092C000008C
:1000200090C000008EC000008CC000008AC000009C
:1000300088C0000086C0000084C0000082C00000AC
:1000400080C000007EC000007CC000007AC00000BC
:1000500078C0000076C0000074C00000E8C2000054
:1000600070C00000AEC2000083C200006AC0000081
:1000700068C0000066C0000064C0000062C00000EC
:1000800060C000005EC000005CC000005AC00000FC
:1000900039C200000EC2000014C3000052C00000AC
:1000A00050C000004EC000004CC000004AC000001C
:1000B00048C0000046C0000044C0000042C000002C
:1000C00040C000003EC000003CC000003AC000003C
:1000D00038C0000036C0000034C0000032C000004C
:1000E00030C000006C0311241FBECFEFD1E2DEBF91
:1000F000CDBF00E00CBF12E0A0E0B2E0EEE6F9E018
:1001000000E00BBF02C007900D92A231B107D9F7F2
:1001100023E0A2E1B2E001C01D92AB35B207E1F7E6
:1001200010E0C3E7D0E000E005C021970109802F6F
:10013000FE0113D4C237D10780E00807B1F71FD3FF
:1001400014C45ECFFC01A089B18982E08C93A485A0
:10015000B5851C92A685B7858FEC8C93108EA489EB
:10016000B58986E08C93A289B3898C9180618C9348
:10017000A289B3898C9188608C93A289B3898C9170
:1001800080688C930288F389E02D80818F7D808345
:100190000895AF92BF92CF92DF92EF92FF920F93AA
:1001A0001F93CF93DF936C017B018B01040F151F0D
:1001B000EB015E01AE18BF08C017D10759F0699175
:1001C000D601ED91FC910190F081E02DC6011995C9
:1001D000892B79F7C501DF91CF911F910F91FF9086
:1001E000EF90DF90CF90BF90AF900895FC01538DBA
:1001F000448D252F30E0842F90E0821B930B541701
:1002000010F0CF96089501970895FC01918D828D8D
:10021000981761F0A28DAE0FBF2FB11D5D968C9126
:10022000928D9F5F9F73928F90E008958FEF9FEF65
:100230000895FC01918D828D981731F0828DE80F21
:10024000F11D858D90E008958FEF9FEF0895FC01DB
:10025000918D228D892F90E0805C9F4F821B9109A8
:100260008F739927089581E292E0F1DF21E0892BD5
:1002700009F420E0822F08958EEB92E0E8DF21E080
:10028000892B09F420E0822F0895FC01A48DA80F8A
:10029000B92FB11DA35ABF4F2C91848D90E00196C8
:1002A0008F739927848FA689B7892C93A089B189E8
:1002B0008C91837080648C93938D848D981306C089
:1002C0000288F389E02D80818F7D80830895EF92ED
:1002D000FF920F931F93CF93DF93EC0181E0888F00
:1002E0009B8D8C8D98131AC0E889F989808185FFD0
:1002F00015C09FB7F894EE89FF896083E889F98972
:1003000080818370806480839FBF81E090E0DF9173
:10031000CF911F910F91FF90EF900895F62E0B8DC6
:1003200010E00F5F1F4F0F731127E02E8C8D8E1181
:100330000BC00FB607FCFACFE889F989808185FFE9
:10034000F5CFCE01A2DFF2CFEB8DEC0FFD2FF11D2B
:10035000E35AFF4FF0829FB7F8940B8FEA89FB892D
:1003600080818062D0CFCF93DF93EC01888D88238A
:10037000B1F0AA89BB89E889F9898C9185FD03C010
:10038000808186FD0CC00FB607FCF7CF8C9185FFEE
:10039000F2CF808185FFEDCFCE0177DFEACFDF910D
:1003A000CF91089580E090E0892B21F065DF8111E5
:1003B0000E94000080E090E0892B21F054DF811141
:1003C0000E94000080E090E0892B49F080E090E0FE
:1003D000892B29F00E94000081110E94000080E01A
:1003E00090E0892B49F080E090E0892B29F00E9471
:1003F000000081110C94000008953FB7F89480919B
:10040000170290911802A0911902B0911A0226B514
:10041000A89B05C02F3F19F00196A11DB11D3FBF3C
:10042000BA2FA92F982F8827BC01CD01620F711D0B
:10043000811D911D42E0660F771F881F991F4A9505
:10044000D1F708958F929F92AF92BF92CF92DF9291
:10045000EF92FF924B015C01D0DF6B017C01CDDF9D
:100460006C197D098E099F09683E734081059105CD
:10047000B0F321E0821A9108A108B10888EEC80EF5
:1004800083E0D81EE11CF11C81149104A104B10485
:1004900031F7FF90EF90DF90CF90BF90AF909F909B
:1004A0008F9008958BB1599A61E070E080E090E000
:1004B000C9CF1F920F920FB60F9211240BB60F9255
:1004C0002F933F934F935F936F937F938F939F935C
:1004D000AF93BF93EF93FF9381E292E0D6DEFF915B
:1004E000EF91BF91AF919F918F917F916F915F91AC
:1004F0004F913F912F910F900BBE0F900FBE0F9019
:100500001F9018951F920F920FB60F9211240BB6E1
:100510000F922F938F939F93EF93FF93E09131026C
:10052000F09132028081E0913702F091380282FD31
:100530001DC0908180913A028F5F8F7320913B02A2
:10054000821741F0E0913A02F0E0EF5DFD4F958FA8
:1005500080933A02FF91EF919F918F912F910F908D
:100560000BBE0F900FBE0F901F9018958081F2CF99
:100570001F920F920FB60F9211240BB60F922F936A
:100580003F934F935F936F937F938F939F93AF931B
:10059000BF93EF93FF938EEB92E077DEFF91EF91A5
:1005A000BF91AF919F918F917F916F915F914F918B
:1005B0003F912F910F900BBE0F900FBE0F901F9089
:1005C00018951F920F920FB60F9211240BB60F922F
:1005D0002F938F939F93EF93FF93E091CE02F0912F
:1005E000CF028081E091D402F091D50282FD1DC03E
:1005F00090818091D7028F5F8F732091D8028217EC
:1006000041F0E091D702F0E0E254FD4F958F8093E6
:10061000D702FF91EF919F918F912F910F900BBE79
:100620000F900FBE0F901F9018958081F2CF1F92F0
:100630000F920FB60F9211242F933F938F939F9396
:10064000AF93BF938091130290911402A091150271
:10065000B09116023091120223E0230F2D3758F586
:100660000196A11DB11D2093120280931302909355
:100670001402A0931502B093160280911702909174
:100680001802A0911902B0911A020196A11DB11D84
:100690008093170290931802A0931902B0931A0244
:1006A000BF91AF919F918F913F912F910F900FBE6E
:1006B0000F901F90189526E8230F0296A11DB11DDB
:1006C000D2CF1F920F920FB60F92112459980F900C
:1006D0000FBE0F901F901895E1E2F2E01382128294
:1006E00048EE53E060E070E044835583668377838F
:1006F00084E092E0918380832DEC30E0358724877D
:100700002CEC30E03787268728EC30E0318B208BCB
:1007100029EC30E0338B228B2AEC30E0358B248BB4
:100720002EEC30E0378B268B118E128E138E148EAA
:10073000EEEBF2E013821282448355836683778363
:100740009183808385EC90E09587848784EC90E0AA
:100750009787868780EC90E0918B808B81EC90E08E
:10076000938B828B82EC90E0958B848B86EC90E06F
:10077000978B868B118E128E138E148E089578941B
:1007800084B5826084BD84B5816084BD85B5826096
:1007900085BD85B5816085BD80916E008160809347
:1007A0006E001092810080918100826080938100B0
:1007B00080918100816080938100809180008160C0
:1007C000809380008091B10084608093B10080911B
:1007D000B00081608093B00080919100826080932E
:1007E00091008091910081608093910080919000B0
:1007F0008160809390008091A10082608093A1002D
:100800008091A10081608093A1008091A00081600F
:100810008093A000809121018260809321018091CA
:10082000210181608093210180912001816080936A
:10083000200180917A00846080937A0080917A0010
:10084000826080937A0080917A00816080937A0040
:1008500080917A00806880937A001092C10064E6EB
:1008600070E080E090E0EEDD8FEF84B981B9519ABD
:1008700012B815B859988EEB92E064DC81E292E0F0
:1008800061DC8091C90084648093C900C1E0DAE52D
:1008900011EB07E381EAF82E8EEB92E0D8DC892B8E
:1008A00049F08EEB92E0B1DC82B9813C910581F593
:1008B000C093200280912002882381F1C0931E0200
:1008C00000931D02F0921C021092200280911E02E1
:1008D000882389F1E7DD8091C90081608093C90098
:1008E00060911D0281E292E0F2DC10921E02C09340
:1008F0001B0281E292E0ABDC892B41F081E292E0C5
:1009000084DC85B9682F8EEB92E0E1DC4BDDC4CF4F
:10091000813D910579F6C0931F02CCCF80911F02D3
:100920008823A1F2C0931E02D0931D0210931C02D3
:1009300010921F02CBCF80911B028823D1F210921C
:100940001B02B0DD8091C9008E7F8093C900609149
:100950001C0281E292E0BBDCCCCFEE0FFF1F881FB0
:0E0960008BBF0790F691E02D1994F894FFCF0D
:10096E00000000006701C900F600B3012701050170
:02097E0019015D
:00000001FF
