:020000020000FC
:100000000C94020001E20EBF0FEF0DBF0FEF07B916
:100010000FEF009307010FEF04B900E001B90FEFF4
:1000200002B900E008B900E00093080100B10075D2
:10003000003119F0003499F0F4CF0FEF05B935D045
:1000400000E005B901E808B930D002E408B92DD0C4
:1000500004E208B92AD008E108B927D0E2CF0FEFAF
:1000600005B923D000E005B900E8009308011DD0D0
:1000700000E40093080119D000E20093080115D0B4
:1000800000E10093080111D008E0009308010DD0B1
:1000900004E00093080109D002E00093080105D0B4
:1000A00001E00093080101D0BCCF1FEF2FEF3EE12C
:0E00B0001A95F1F72A95E1F73A95D1F70895E0
:00000001FF
