:100000000C9435000C945D000C945D000C945D0024
:100010000C945D000C945D000C945D000C945D00EC
:100020000C945D000C945D000C945D000C945D00DC
:100030000C945D000C945D000C945D000C945D00CC
:100040000C9400030C945D000C94CE020C94A80256
:100050000C944A030C945D000C945D000C945D00BC
:100060000C945D000C945D00960411241FBECFEF2C
:10007000D8E0DEBFCDBF11E0A0E0B1E0EAE2FAE0F7
:1000800002C005900D92A232B107D9F721E0A2E299
:10009000B1E001C01D92AB3CB207E1F710E0C5E34F
:1000A000D0E004C02197FE010E940D05C433D107A2
:1000B000C9F70E9455030C9413050C940000AF92ED
:1000C000BF92CF92DF92EF92FF920F931F93CF9345
:1000D000DF936C017B018B01040F151FEB015E01A7
:1000E000AE18BF08C017D10759F06991D601ED913C
:1000F000FC910190F081E02DC6010995892B79F7DB
:10010000C501DF91CF911F910F91FF90EF90DF908C
:10011000CF90BF90AF900895AB01BC018EE291E00B
:100120000C945F00FC01538D448D252F30E0842F0B
:1001300090E0821B930B541710F0CF96089501970F
:100140000895FC01918D828D981761F0A28DAE0FFC
:10015000BF2FB11D5D968C91928D9F5F9F73928F83
:1001600090E008958FEF9FEF0895FC01918D828DAF
:10017000981731F0828DE80FF11D858D90E008957C
:100180008FEF9FEF0895FC01918D228D892F90E0D4
:10019000805C9F4F821B91098F73992708958EE28F
:1001A00091E00E94C30021E0892B09F420E0822F16
:1001B000089580E090E0892B29F00E94CF00811102
:1001C0000C9400000895FC01A48DA80FB92FB11D57
:1001D000A35ABF4F2C91848D90E001968F7399277D
:1001E000848FA689B7892C93A089B1898C9183705B
:1001F00080648C93938D848D981306C00288F38954
:10020000E02D80818F7D80830895EF92FF920F9380
:100210001F93CF93DF93EC0181E0888F9B8D8C8DB2
:1002200098131AC0E889F989808185FF15C09FB7A6
:10023000F894EE89FF896083E889F9898081837069
:10024000806480839FBF81E090E0DF91CF911F9118
:100250000F91FF90EF900895F62E0B8D10E00F5F39
:100260001F4F0F731127E02E8C8D8E110CC00FB60F
:1002700007FCFACFE889F989808185FFF5CFCE01A7
:100280000E94E300F1CFEB8DEC0FFD2FF11DE35A3F
:10029000FF4FF0829FB7F8940B8FEA89FB8980812A
:1002A0008062CFCF6AE08EE291E00C940501CF939B
:1002B000DF93EC01888D8823B9F0AA89BB89E8898E
:1002C000F9898C9185FD03C0808186FD0DC00FB634
:1002D00007FCF7CF8C9185FFF2CF808185FFEDCFB2
:1002E000CE010E94E300E9CFDF91CF9108953FB79F
:1002F000F8948091270190912801A0912901B09153
:100300002A0126B5A89B05C02F3F19F00196A11D13
:10031000B11D3FBFBA2FA92F982F8827BC01CD014F
:10032000620F711D811D911D42E0660F771F881FAE
:10033000991F4A95D1F708958F929F92AF92BF92DD
:10034000CF92DF92EF92FF924B015C010E94770106
:100350006B017C010E9477016C197D098E099F0950
:10036000683E734081059105A8F321E0821A910847
:10037000A108B10888EEC80E83E0D81EE11CF11C6C
:1003800081149104A104B10429F7FF90EF90DF904C
:10039000CF90BF90AF909F908F900895FC01680F11
:1003A000791F8FEF90E0E617F70789F02191AC01F4
:1003B000422728E030E0CA019695879540FF02C0A9
:1003C00048EB842721503109AC01A9F7ECCF0895FF
:1003D0005A9A61E070E080E090E00C949C01CF922A
:1003E000DF92EF92FF920F931F93CF93DF93CDB7DE
:1003F000DEB7A1970FB6F894DEBF0FBECDBF9C014C
:1004000050E040E019A28E010F5D1F4F8AE0C82E18
:10041000D12CE12CF12CCA01B901A70196010E944F
:10042000D704605DF80162938F0121153105410504
:10043000510589F7309731F101900020E9F73197A4
:10044000AF01401B510BB8018EE291E00E945F00AA
:100450008C0142E050E063E171E08EE291E00E94A5
:100460005F00800F911FA1960FB6F894DEBF0FBEFC
:10047000CDBFDF91CF911F910F91FF90EF90DF9053
:10048000CF90089510E000E0E4CF9F92AF92BF922A
:10049000CF92DF92EF92FF920F931F93CF93DF9350
:1004A000EC01942E8B010F5F1F4FC80165E070E0D7
:1004B0000E94C3045B01892B19F481E0A81AB108DA
:1004C00062E08EE291E00E94050165E070E0CE01FD
:1004D0000E94CE017C01A114B10439F4F8013197D6
:1004E000EC0FFD1F80818925808365E070E0CE01DF
:1004F0000E948C000E945201C7010E94EF016E0110
:1005000085E0C80ED11C65E070E0C6010E94CE01F6
:100510007C01AA94AB2839F401501109C00FD11FF6
:1005200088819826988265E070E0C6010E948C0060
:100530000E945201C701DF91CF911F910F91FF904F
:10054000EF90DF90CF90BF90AF909F900C94EF0111
:100550001F920F920FB60F9211242F933F934F9338
:100560005F936F937F938F939F93AF93BF93EF931B
:10057000FF938EE291E00E94E300FF91EF91BF9123
:10058000AF919F918F917F916F915F914F913F912B
:100590002F910F900FBE0F901F9018951F920F92E2
:1005A0000FB60F9211242F938F939F93EF93FF9386
:1005B000E0913E01F0913F018081E0914401F09192
:1005C000450182FD1BC09081809147018F5F8F7331
:1005D00020914801821741F0E0914701F0E0E25D8F
:1005E000FE4F958F80934701FF91EF919F918F91DF
:1005F0002F910F900FBE0F901F9018958081F4CF10
:100600001F920F920FB60F9211242F933F938F9347
:100610009F93AF93BF938091230190912401A09168
:100620002501B09126013091220123E0230F2D37BF
:1006300058F50196A11DB11D20932201809323013D
:1006400090932401A0932501B09326018091270166
:1006500090912801A0912901B0912A010196A11D34
:10066000B11D8093270190932801A0932901B09395
:100670002A01BF91AF919F918F913F912F910F9040
:100680000FBE0F901F90189526E8230F0296A11D0C
:10069000B11DD2CF1F920F920FB60F9211245A980C
:1006A0000F900FBE0F901F901895CF93DF93CDB78B
:1006B000DEB72B970FB6F894DEBF0FBECDBF789490
:1006C00084B5826084BD84B5816084BD85B5826057
:1006D00085BD85B5816085BD80916E008160809308
:1006E0006E00109281008091810082608093810071
:1006F0008091810081608093810080918000816081
:10070000809380008091B10084608093B1008091DB
:10071000B00081608093B00080917A008460809303
:100720007A0080917A00826080937A0080917A00CA
:10073000816080937A0080917A00806880937A004B
:100740001092C10068EE73E080E090E00E949C018E
:100750008FEF84B915B887E08AB988EF8BB9E0913B
:100760003E01F0913F0112E01083E0913A01F091D7
:100770003B011082E0913C01F0913D018FEC8083C0
:1007800010924601E0914201F091430186E080839E
:10079000E0914001F0914101808180618083E0918E
:1007A0004001F0914101808188608083E0914001A7
:1007B000F0914101808180688083E0914001F09157
:1007C000410180818F7D80838091C100846480930A
:1007D000C1008091C00081608093C00061E070E042
:1007E00080E090E00E949C0110932D0115B980E0FB
:1007F000E82E80E0F82E11E089B18EE291E00E94AF
:10080000C300892BA9F08EE291E00E94A100909193
:1008100000019923B9F090912D01891309C010921C
:10082000000110932C018091C0008E7F8093C00046
:10083000E114F10409F30E94CF008823E9F20E9439
:100840000000DACF90912C01992309F466C08093BF
:100850002B0110922C01813A59F3813B99F51093A9
:1008600000010E94E8018BE0E6E1F1E0DE01119673
:1008700001900D928A95E1F762E08EE291E00E948C
:10088000050165E070E0CE0101960E948C000E9497
:10089000520165E070E0CE0101960E94CE010E94F7
:1008A000EF0165E070E0CE0106960E948C000E9488
:1008B000520165E070E0CE0106960E94CE010E94D2
:1008C000EF01B6CF813CA9F4109300010E94E8012A
:1008D0008BE0E6E1F1E0DE01119601900D928A9540
:1008E000E1F741E069E070E0CE0101960E94450227
:1008F0009FCF813D09F09CCF109300010E94E80139
:100900008BE0E6E1F1E0DE01119601900D928A950F
:10091000E1F743E062E070E0E7CF90912B01913A7C
:1009200009F086CF1093000185B982CFEEE2F1E0A5
:100930001382128288EE93E0A0E0B0E08483958376
:10094000A683B78385E091E09183808385EC90E076
:100950009587848784EC90E09787868780EC90E089
:10096000918B808B81EC90E0938B828B82EC90E07A
:10097000958B848B86EC90E0978B868B118E128EF4
:10098000138E148E089597FB072E16F4009407D04B
:1009900077FD09D00E94F90407FC05D03EF490953C
:1009A00081959F4F0895709561957F4F0895A1E2BD
:1009B0001A2EAA1BBB1BFD010DC0AA1FBB1FEE1FD9
:1009C000FF1FA217B307E407F50720F0A21BB30B24
:1009D000E40BF50B661F771F881F991F1A9469F7A0
:1009E00060957095809590959B01AC01BD01CF01FC
:1009F0000895AA1BBB1B51E107C0AA1FBB1FA61766
:100A0000B70710F0A61BB70B881F991F5A95A9F7B7
:100A100080959095BC01CD010895EE0FFF1F0590C4
:0A0A2000F491E02D0994F894FFCF43
:100A2A00010000000005015F0092005701C300A108
:100A3A0000B5000D0A0032342E30392E32303030F3
:020A4A000000AA
:107E0000112484B714BE81FFF0D085E080938100F7
:107E100082E08093C00088E18093C10086E0809377
:107E2000C20080E18093C4008EE0C9D0259A86E02C
:107E300020E33CEF91E0309385002093840096BBD3
:107E4000B09BFECF1D9AA8958150A9F7CC24DD24C4
:107E500088248394B5E0AB2EA1E19A2EF3E0BF2EE7
:107E6000A2D0813461F49FD0082FAFD0023811F036
:107E7000013811F484E001C083E08DD089C08234E0
:107E800011F484E103C0853419F485E0A6D080C0E4
:107E9000853579F488D0E82EFF2485D0082F10E0AE
:107EA000102F00270E291F29000F111F8ED06801E7
:107EB0006FC0863521F484E090D080E0DECF843638
:107EC00009F040C070D06FD0082F6DD080E0C81688
:107ED00080E7D80618F4F601B7BEE895C0E0D1E017
:107EE00062D089930C17E1F7F0E0CF16F0E7DF06D8
:107EF00018F0F601B7BEE89568D007B600FCFDCFD4
:107F0000A601A0E0B1E02C9130E011968C91119780
:107F100090E0982F8827822B932B1296FA010C0160
:107F200087BEE89511244E5F5F4FF1E0A038BF0790
:107F300051F7F601A7BEE89507B600FCFDCF97BE46
:107F4000E89526C08437B1F42ED02DD0F82E2BD052
:107F50003CD0F601EF2C8F010F5F1F4F84911BD097
:107F6000EA94F801C1F70894C11CD11CFA94CF0C13
:107F7000D11C0EC0853739F428D08EE10CD085E9AC
:107F80000AD08FE07ACF813511F488E018D01DD067
:107F900080E101D065CF982F8091C00085FFFCCF94
:107FA0009093C60008958091C00087FFFCCF809118
:107FB000C00084FD01C0A8958091C6000895E0E648
:107FC000F0E098E1908380830895EDDF803219F02E
:107FD00088E0F5DFFFCF84E1DECF1F93182FE3DFCA
:107FE0001150E9F7F2DF1F91089580E0E8DFEE27F6
:047FF000FF270994CA
:027FFE00040479
:0400000300007E007B
:00000001FF
