:100000000C9468000C9490000C9490000C94900058
:100010000C9490000C9490000C9490000C94900020
:100020000C9490000C9490000C9490000C94900010
:100030000C9490000C9490000C9490000C94900000
:100040000C9472040C9490000C9440040C941A04C8
:100050000C94BC040C9490000C9490000C949000B0
:100060000C9490000C949000005EBCE2613FDD8334
:10007000C29C7E20A3FD1F41009D23BE46DB65F888
:100080008C11AF32CA57E974000000002500280027
:100090002B0000000000240027002A0000000000C0
:1000A00023002600290004040404040404040202BA
:1000B00002020202030303030303010204081020E7
:1000C0004080010204081020010204081020C70427
:1000D00011241FBECFEFD8E0DEBFCDBF11E0A0E0FE
:1000E000B1E0E8E7F2E102C005900D92AA31B10754
:1000F000D9F721E0AAE1B1E001C01D92A33EB20709
:10010000E1F710E0C8E6D0E004C02197FE010E94AC
:100110003409C736D107C9F70E9470050C943A0913
:100120000C940000AF92BF92CF92DF92EF92FF92B9
:100130000F931F93CF93DF936C017B018B01040F0F
:10014000151FEB015E01AE18BF08C017D10759F0AB
:100150006991D601ED91FC910190F081E02DC601ED
:100160000995892B79F7C501DF91CF911F910F91E7
:10017000FF90EF90DF90CF90BF90AF900895FC017B
:10018000538D448D252F30E0842F90E0821B930BFC
:10019000541710F0CF96089501970895FC01918DA2
:1001A000828D981761F0A28DAE0FBF2FB11D5D96A5
:1001B0008C91928D9F5F9F73928F90E008958FEF47
:1001C0009FEF0895FC01918D828D981731F0828DFB
:1001D000E80FF11D858D90E008958FEF9FEF089552
:1001E000FC01918D228D892F90E0805C9F4F821BB6
:1001F00091098F739927089584E291E00E94F0009D
:1002000021E0892B09F420E0822F089580E090E01E
:10021000892B29F00E94FC0081110C9400000895A4
:10022000FC01A48DA80FB92FB11DA35ABF4F2C916B
:10023000848D90E001968F739927848FA689B78962
:100240002C93A089B1898C91837080648C93938D59
:10025000848D981306C00288F389E02D80818F7DFC
:1002600080830895EF92FF920F931F93CF93DF93B4
:10027000EC0181E0888F9B8D8C8D98131AC0E889E2
:10028000F989808185FF15C09FB7F894EE89FF89B1
:100290006083E889F98980818370806480839FBF4F
:1002A00081E090E0DF91CF911F910F91FF90EF904F
:1002B0000895F62E0B8D10E00F5F1F4F0F7311275F
:1002C000E02E8C8D8E110CC00FB607FCFACFE8899A
:1002D000F989808185FFF5CFCE010E941001F1CF11
:1002E000EB8DEC0FFD2FF11DE35AFF4FF0829FB70E
:1002F000F8940B8FEA89FB8980818062CFCFCF93FE
:10030000DF93EC01888D8823B9F0AA89BB89E8893D
:10031000F9898C9185FD03C0808186FD0DC00FB6E3
:1003200007FCF7CF8C9185FFF2CF808185FFEDCF61
:10033000CE010E941001E9CFDF91CF9108953FB720
:10034000F89480911B0190911C01A0911D01B09126
:100350001E0126B5A89B05C02F3F19F00196A11DCF
:10036000B11D3FBFBA2FA92F982F8827BC01CD01FF
:10037000620F711D811D911D42E0660F771F881F5E
:10038000991F4A95D1F708958F929F92AF92BF928D
:10039000CF92DF92EF92FF926B017C010E949F014E
:1003A0004B015C01C114D104E104F104B9F00E94D5
:1003B0009F01681979098A099B09683E7340810584
:1003C000910580F321E0C21AD108E108F10888EE16
:1003D000880E83E0981EA11CB11CE4CFFF90EF9023
:1003E000DF90CF90BF90AF909F908F900895DC01E9
:1003F00080E0615090F09D919827E92FEF70F0E038
:10040000E859FF4F2491E92FE295EF70F0E0E858AA
:10041000FF4FE491822F8E27ECCF0895DC012C91C1
:100420001196ED91FC91F8948181822B81839281C8
:10043000322F30959323928387E090E00197F1F774
:1004400081818323818383E290E00197F1F790819A
:100450007894EFECF0E03197F1F7922381E009F422
:1004600080E00895FC0190810180F281E02D292F28
:10047000209560FF14C0F894828182238283818159
:10048000892B8183A3E2B0E01197F1F78281982B49
:100490009283789487ED90E00197F1F70895F894AE
:1004A0008281822382838181892B8183AFEFB0E0B7
:1004B0001197F1F78281982B928378948FE090E0E6
:1004C000EBCFDF92EF92FF920F931F93CF93DF93C7
:1004D000EC01D62EE42E08E010E0FF24F39461E056
:1004E0008D2D8F2109F460E0CE010E943202FF0CB5
:1004F00001501109A1F7E11010C0F894E981FA81C7
:1005000091818881809589238183E981FA81928113
:1005100088818095892382837894DF91CF911F9180
:100520000F91FF90EF90DF900895EF92FF920F935D
:100530001F93CF93DF938C017B0140E065E50E9420
:100540006102E70188E0E80EF11C699140E0C80112
:100550000E946102CE15DF05C1F7DF91CF911F9197
:100560000F91FF90EF900895FC0190810180F2813E
:10057000E02DF8948181292F20958223818378941E
:100580003DE743E050E0315029F1DA011197F1F7EE
:1005900080818923C1F3F8948281822382838181BF
:1005A000892B81837894ABE7B7E01197F1F7F89442
:1005B000818182238183A3E1B1E01197F1F78081EA
:1005C000982381E009F080E07894E3E6F6E0319743
:1005D000F1F7089580E00895AF92BF92CF92DF9235
:1005E000EF92FF920F931F93CF93DF938B01BC0188
:1005F0008091C7019091C8010E94950240E06EEB86
:100600008091C7019091C8010E946102E8016801D0
:1006100089E0C80ED11CA090C701B090C80188E045
:10062000E82EF12C10E001E0C5010E940E028111BC
:10063000102B000F81E0E81AF108B1F71993CC16DE
:10064000DD0649F78091C7019091C8010E94B4026C
:1006500091E0813009F090E0892FDF91CF911F91D7
:100660000F91FF90EF90DF90CF90BF90AF900895E3
:100670000F931F93CF93DF93CDB7DEB729970FB6B4
:10068000F894DEBF0FBECDBF8C018091C701909161
:10069000C8010E94B402811102C080E01FC0BE01E7
:1006A0006F5F7F4FC8010E94EC028823B1F368E0BE
:1006B000CE0101960E94F70199858913EECF8D81B5
:1006C0008F33B9F020F48F3141F789E007C08F35BF
:1006D00021F08F3711F78CE001C08BE029960FB61F
:1006E000F894DEBF0FBECDBFDF91CF911F910F9168
:1006F00008958AE0F3CF90E09C01220F331F2A7AFD
:10070000959587958575282B30E0C901880F991F2D
:10071000880F991F8C7C35952795359527952373E0
:10072000822B829508955A9A61E070E080E090E013
:100730000C94C401BF92CF92DF92EF92FF920F937D
:100740001F93CF93DF93EC01B62EC72E8D858111B9
:1007500005C0CE010E94B40281110EC01B861D8609
:100760001C8680E0DF91CF911F910F91FF90EF9059
:10077000DF90CF90BF90089540E060EFCE010E94DF
:10078000610201E0E12CD12C11E0CE010E940E02A9
:10079000F82ECE010E940E0291E0F91218C08130AD
:1007A00099F51134D8F2DB86D11002C081E08D8733
:1007B0008B81882399F22396EB2DFC2DCF0108968F
:1007C00029912193E817F907D9F781E0CBCFEE2DD6
:1007D000F0E0F8120FC08B851817A0F4DE01AE0F01
:1007E000BF1F13968C91802379F4F12C193008F4F3
:1007F0001C87D12EEC0FFD1F8381902F90958923AC
:1008000083830AC08113F1CFFE01EE0DF11D8381B8
:10081000802B8383FF24F3946F2DCE010E9432023C
:100820001F5F000F11F4E39401E087E08E1508F0DC
:10083000ACCFB7CF1F920F920FB60F9211242F9308
:100840003F934F935F936F937F938F939F93AF9358
:10085000BF93EF93FF9384E291E00E941001FF9118
:10086000EF91BF91AF919F918F917F916F915F9128
:100870004F913F912F910F900FBE0F901F901895A1
:100880001F920F920FB60F9211242F938F939F9365
:10089000EF93FF93E0913401F09135018081E09175
:1008A0003A01F0913B0182FD1BC0908180913D0196
:1008B0008F5F8F7320913E01821741F0E0913D01DF
:1008C000F0E0EC5DFE4F958F80933D01FF91EF913D
:1008D0009F918F912F910F900FBE0F901F901895A1
:1008E0008081F4CF1F920F920FB60F9211242F9395
:1008F0003F938F939F93AF93BF9380911F019091EC
:100900002001A0912101B091220130911A0123E030
:10091000230F2D3758F50196A11DB11D20931A0103
:1009200080931F0190932001A0932101B093220195
:1009300080911B0190911C01A0911D01B0911E019D
:100940000196A11DB11D80931B0190931C01A093E2
:100950001D01B0931E01BF91AF919F918F913F9167
:100960002F910F900FBE0F901F90189526E8230F20
:100970000296A11DB11DD2CF1F920F920FB60F92FA
:1009800011245A980F900FBE0F901F901895CF9377
:10099000DF93109227011092260188EE93E0A0E0E9
:1009A000B0E08093280190932901A0932A01B0938D
:1009B0002B018BE091E0909325018093240185EC3D
:1009C00090E0909331018093300184EC90E090931B
:1009D00033018093320180EC90E090933501809355
:1009E000340181EC90E0909337018093360182ECE2
:1009F00090E0909339018093380186EC90E09093D9
:100A00003B0180933A0110923D0110923E011092F9
:100A10003F011092400147EC50E0FA01649183EBF2
:100A200090E0FC0124912223C1F030E0220F331F1B
:100A3000F901EE56FF4FA591B491F901E857FF4F28
:100A4000C591D4917FB7F8943C91262F20953223FD
:100A50003C933881232328837FBFFA01449140933C
:100A6000D501FC018491E82FF0E0EE0FFF1FE45662
:100A7000FF4F859194919093D7018093D601109266
:100A8000E0011092E2011092E1011092DF01109258
:100A9000DE011092DD011092DC011092DB01109258
:100AA000DA011092D9011092D80185ED91E090936E
:100AB000C8018093C7011092C5011092C60110921F
:100AC000C10189E08093C20181E08093C3018093DA
:100AD000C4011092D4011092D301DF91CF910895F7
:100AE000CF93DF93CDB7DEB761970FB6F894DEBF33
:100AF0000FBECDBF789484B5826084BD84B581601B
:100B000084BD85B5826085BD85B5816085BD8091D8
:100B10006E00816080936E00109281008091810050
:100B20008260809381008091810081608093810048
:100B3000809180008160809380008091B10084600A
:100B40008093B1008091B00081608093B00080916B
:100B50007A00846080937A0080917A00826080932A
:100B60007A0080917A00816080937A0080917A0087
:100B7000806880937A001092C10064E670E080E0A3
:100B800090E00E94C40187E08AB988EF8BB9E091B8
:100B90003401F091350182E08083E0913001F091E1
:100BA00031011082E0913201F09133018FEC8083AA
:100BB00010923C01E0913801F091390186E0808388
:100BC000E0913601F0913701808180618083E0916E
:100BD0003601F0913701808188608083E091360191
:100BE000F0913701808180688083E0913601F09137
:100BF000370180818F7D80838091C10084648093E0
:100C0000C1008091C00081608093C000E091C70165
:100C1000F091C801138615861486128611861086F7
:100C2000178216821582148213821092C5011092C7
:100C3000C60101E0BE016F5F7F4F8091C7019091B7
:100C4000C8010E949A03882309F468C067E0CE01B6
:100C500001960E94F70198858913ECCF8091C1011C
:100C6000811128C08091C7019091C8010E94B402EF
:100C7000BE016F5F7F4F8091C7019091C8010E94B4
:100C8000950240E064EB8091C7019091C8010E94F9
:100C900061028091C7019091C8010E940E02182F35
:100CA0008091C7019091C8010E94B402111102C045
:100CB0000093C1011091C2018981803109F477C18B
:100CC000CE0101960E9438038117C0F48091C201C1
:100CD0008093C2018091C5018F5F8093C501898196
:100CE000883231F0A8F4803119F0823209F0A2CFB5
:100CF0008091C6018F5F8093C6019CCF898180312E
:100D000011F48CE0E5CFCE0101960E943803E0CFCC
:100D10008B3371F3823409F08DCFEACF61E070E05C
:100D200080E090E00E94C401BDE1EB2E00E010E005
:100D3000FF24F39484E291E00E94F000892BA1F05B
:100D400084E291E00E94CE00209100012223B1F0C4
:100D50008A35910549F410920001F09223018091A7
:100D6000C0008E7F8093C0000115110519F30E9409
:100D7000FC008823F9F20E940000DCCF20912301BF
:100D8000222391F3813B910579F78091C000816026
:100D90008093C0008091C7019091C8010E94B40265
:100DA00040E06CEC8091C7019091C8010E94610203
:100DB0004091C10164E48091C7019091C8010E94F3
:100DC00061028091C301882309F442C0E091C2010D
:100DD000E9506EEE72E0E33038F4F0E0EE0FFF1F02
:100DE000EF5FFE4F608171818091C401882309F417
:100DF00073C08091C10181116FC08FB7F89440908A
:100E00001F015090200160902101709022018FBF3E
:100E10004B01770FAA08BB088091C7019091C801C8
:100E20000E940E028130A1F02FB7F89480911F012B
:100E300090912001A0912101B09122012FBF88192A
:100E40009909AA09BB0984159505A605B70520F3DC
:100E5000E091C701F091C8011386158614861286A9
:100E60001186108617821682158214821382BE01A3
:100E7000665F7F4F8091C7019091C8010E949A03DD
:100E8000811131C0812C912C6EEFA62E62ECB62E12
:100E90000E949303C501B4010E94DB07B62E84E2D1
:100EA00091E00E9432010E9493038B2D0E947B03EC
:100EB000809598E087FF79C0880F8E259150D1F7F3
:100EC0000E947B03682F84E291E00E943201F0923D
:100ED00000011092230148CF072E000C880B990BBC
:100EE0000E94C401B5CF67E0CE010A960E94F701C7
:100EF00099898913C7CF8091C7019091C8010E9439
:100F0000B402882309F4BECFBE016F5F7F4FCE01CC
:100F10000A960E94EC02882309F4B4CF68E0CE015F
:100F200001960E94F70199858913ACCF6A8170E020
:100F3000762F6627770F770F770F298148E0249F58
:100F400090011124262B372B8A858031D1F46885B6
:100F500070E08F81AB01481B5109CA019695982F0B
:100F60008827979587950E940C09CB014097B90176
:100F700053E0660F771F5A95E1F760789C01260FC2
:100F8000371F213854EE35070CF47CCFB901330FED
:100F9000880B990B0E94130820E030E040E05CE3EE
:100FA0000E9477084B015C0173CF880F87CF1D30FB
:100FB00008F08CCEA6CE0E94E2076894B1110C9482
:100FC000710808950E94560888F09F5798F0B92F2D
:100FD0009927B751B0F0E1F0660F771F881F991F6E
:100FE0001AF0BA95C9F714C0B13091F00E94700898
:100FF000B1E008950C947008672F782F8827B85FA8
:1010000039F0B93FCCF3869577956795B395D9F7C5
:101010003EF490958095709561957F4F8F4F9F4FCF
:101020000895E89409C097FB3EF4909580957095DB
:1010300061957F4F8F4F9F4F9923A9F0F92F96E924
:10104000BB279395F695879577956795B795F11199
:10105000F8CFFAF4BB0F11F460FF1BC06F5F7F4F36
:101060008F4F9F4F16C0882311F096E911C0772348
:1010700021F09EE8872F762F05C0662371F096E851
:10108000862F70E060E02AF09A95660F771F881F20
:10109000DAF7880F9695879597F9089557FD905838
:1010A000440F551F59F05F3F71F04795880F97FB2C
:1010B000991F61F09F3F79F08795089512161306E6
:1010C0001406551FF2CF4695F1DF08C01616170615
:1010D0001806991FF1CF869571056105089408954A
:1010E000E894BB2766277727CB0197F908950E94DC
:1010F0008A080C94FB080E94ED0838F00E94F4085E
:1011000020F0952311F00C94E4080C94EA081124C3
:101110000C9471080E944E0870F3959FC1F3950FCF
:1011200050E0551F629FF001729FBB27F00DB11D6B
:10113000639FAA27F00DB11DAA1F649F6627B00DFB
:10114000A11D661F829F2227B00DA11D621F739FE4
:10115000B00DA11D621F839FA00D611D221F749FF2
:101160003327A00D611D231F849F600D211D822F39
:10117000762F6A2F11249F5750409AF0F1F0882360
:101180004AF0EE0FFF1FBB1F661F771F881F91508D
:101190005040A9F79E3F510580F00C94E4080C9450
:1011A00071085F3FE4F3983ED4F386957795679591
:1011B000B795F795E7959F5FC1F7FE2B880F911DB7
:1011C0009695879597F9089597F99F6780E870E05D
:1011D00060E008959FEF80EC089500240A941616AD
:1011E000170618060906089500240A941216130615
:1011F000140605060895092E0394000C11F48823A3
:1012000052F0BB0F40F4BF2B11F460FF04C06F5FBE
:101210007F4F8F4F9F4F089597FB072E16F4009432
:1012200007D077FD09D00E94200907FC05D03EF4C5
:10123000909581959F4F0895709561957F4F089582
:10124000AA1BBB1B51E107C0AA1FBB1FA617B707EC
:1012500010F0A61BB70B881F991F5A95A9F7809508
:101260009095BC01CD010895EE0FFF1F0590F491FC
:08127000E02D0994F894FFCF72
:10127800015E00BC0077010000000032019200BF4F
:0A128800007F01F000CE00E200003C
:107E0000112484B714BE81FFF0D085E080938100F7
:107E100082E08093C00088E18093C10086E0809377
:107E2000C20080E18093C4008EE0C9D0259A86E02C
:107E300020E33CEF91E0309385002093840096BBD3
:107E4000B09BFECF1D9AA8958150A9F7CC24DD24C4
:107E500088248394B5E0AB2EA1E19A2EF3E0BF2EE7
:107E6000A2D0813461F49FD0082FAFD0023811F036
:107E7000013811F484E001C083E08DD089C08234E0
:107E800011F484E103C0853419F485E0A6D080C0E4
:107E9000853579F488D0E82EFF2485D0082F10E0AE
:107EA000102F00270E291F29000F111F8ED06801E7
:107EB0006FC0863521F484E090D080E0DECF843638
:107EC00009F040C070D06FD0082F6DD080E0C81688
:107ED00080E7D80618F4F601B7BEE895C0E0D1E017
:107EE00062D089930C17E1F7F0E0CF16F0E7DF06D8
:107EF00018F0F601B7BEE89568D007B600FCFDCFD4
:107F0000A601A0E0B1E02C9130E011968C91119780
:107F100090E0982F8827822B932B1296FA010C0160
:107F200087BEE89511244E5F5F4FF1E0A038BF0790
:107F300051F7F601A7BEE89507B600FCFDCF97BE46
:107F4000E89526C08437B1F42ED02DD0F82E2BD052
:107F50003CD0F601EF2C8F010F5F1F4F84911BD097
:107F6000EA94F801C1F70894C11CD11CFA94CF0C13
:107F7000D11C0EC0853739F428D08EE10CD085E9AC
:107F80000AD08FE07ACF813511F488E018D01DD067
:107F900080E101D065CF982F8091C00085FFFCCF94
:107FA0009093C60008958091C00087FFFCCF809118
:107FB000C00084FD01C0A8958091C6000895E0E648
:107FC000F0E098E1908380830895EDDF803219F02E
:107FD00088E0F5DFFFCF84E1DECF1F93182FE3DFCA
:107FE0001150E9F7F2DF1F91089580E0E8DFEE27F6
:047FF000FF270994CA
:027FFE00040479
:0400000300007E007B
:00000001FF
